:020000040800F2
:10000000A00700202D0200085D1A000871190008E1
:10001000591A000849040008791C00080000000073
:10002000000000000000000000000000651A000849
:100030005904000800000000611A0008691A00084D
:10004000470200084702000847020008470200086C
:10005000470200084702000847020008470200085C
:10006000470200084702000847020008470200084C
:10007000470200084702000847020008470200083C
:10008000470200084702000847020008470200082C
:100090004D04000847020008470200084702000814
:1000A000470200084702000847020008470200080C
:1000B00047020008470200084702000847020008FC
:1000C00047020008470200084702000847020008EC
:1000D00047020008470200084702000847020008DC
:1000E00047020008470200084702000847020008CC
:1000F00047020008470200084702000847020008BC
:1001000047020008470200084702000847020008AB
:100110004702000847020008291B000847020008A0
:10012000470200084702000847020008470200088B
:10013000470200084702000847020008470200087B
:10014000470200084702000847020008470200086B
:10015000470200084702000847020008470200085B
:10016000470200084702000847020008470200084B
:10017000470200084702000847020008000000008C
:10018000470200084702000800F002F800F03EF8BD
:100190000AA090E8000C82448344AAF10107DA45E2
:1001A00001D100F033F8AFF2090EBAE80F0013F0F6
:1001B000010F18BFFB1A43F001031847481D000048
:1001C000681D0000103A24BF78C878C1FAD85207D9
:1001D00024BF30C830C144BF04680C6070470000C1
:1001E0000023002400250026103A28BF78C1FBD840
:1001F000520728BF30C148BF0B6070471FB501F0E0
:100200006CFE00F0D5F81FBD10B510BD00F0E2F88F
:100210001146FFF7F3FF01F019FE00F000F903B4F7
:10022000FFF7F2FF03BC00F007F900000948804720
:1002300009480047FEE7FEE7FEE7FEE7FEE7FEE7C8
:10024000FEE7FEE7FEE7FEE704480549054A064BE0
:1002500070470000151B000889010008A00100205C
:10026000A0070020A0030020A003002053EA020CF6
:1002700000F069802DE9F04B4FF00006002B1FBF06
:10028000B3FA83F503FA05F424FA05F65E4012BFCB
:100290001643B2FA82F502FA05F4C5F120051EBF35
:1002A00022FA05FC44EA0C04203556EA044C4FEAD5
:1002B000144418BF641C4FF000084FF0000990422E
:1002C00071EB030C39D3002919BFB1FA81F701FA98
:1002D00007F6B0FA80F700FA07F6C7F120071EBF4D
:1002E00020FA07FC46EA0C062037B6FBF4FCA7EB25
:1002F0000507103F07F01F0BCBF120062CFA06F67E
:100300000CFA0BFB44BFB3460026202FA4BF5E4669
:100310004FF0000B5BEA060C08BF4FF0010B19EB26
:100320000B0948EB0608ABFB027C06FB02CC0BFB7F
:1003300003CCC01B71EB0C01C1E70B4602464146E2
:100340004846BDE8F08B13B5084318BF4FF0FF30A7
:100350000146AFF30080BDE81C4070474FF000023B
:1003600000B5134694469646203922BFA0E80C50AB
:10037000A0E80C50B1F12001BFF4F7AF090728BF86
:10038000A0E80C5048BF0CC05DF804EB890028BF02
:1003900040F8042B08BF704748BF20F8022B11F02B
:1003A000804F18BF00F8012B7047704770477047A7
:1003B00070B5064C7C44064D7D4404E0204601683F
:1003C00008448047241DAC42F8D170BD6C1B00006E
:1003D0006C1B0000754600F02BF8AE460500694620
:1003E000534620F00700854618B020B5FFF72CFFD4
:1003F000BDE820404FF000064FF000074FF0000826
:100400004FF0000BAC46ACE8C009ACE8C009ACE862
:10041000C009ACE8C00921F007018D46704710B54E
:100420000446AFF300802046BDE81040FFF7F7BE5A
:10043000004870472800002001491820ABBEFEE7A5
:100440002600020070470000FEE7000040F20C109A
:10045000C2F2000000F0A4B97047000072B600BFFD
:10046000FEE7000090F82020013A012A08D8006831
:1004700000F114020020136819431160704700BF97
:1004800000F1240201204FF4802113681943116008
:100490007047000010B590F820E0D0F800C0AEF131
:1004A000010EBEF1010FDCF808E011D81EF0E05F8C
:1004B00018D0CEF3016E012000FA0EF018608B68A0
:1004C000D3B14868CC6844EAC000034318E000BFD9
:1004D00000F1240101204FF480220B681A430A60C6
:1004E00010BD00BF00F1240101204FF400120B6881
:1004F0001A430A6010BD00BF0868CB6843EA405346
:100500000CEB0E10C0F880310B69C0F88431097D06
:10051000012905D100F5C2710B6843F480730B60AB
:100520005168C0F88C11126800F5C071C0F88821BC
:10053000002001220B681A430A6010BDB0B590F884
:100540002020013A012A2FD846F20060C4F20000B0
:10055000026842F001020260026822F47C520260EA
:10056000D1F814E0CC694A6A0368012C43EA0222FC
:1005700002600EF01F024FF0010303FA02F2C3699A
:100580006FEA020C23EA0203C36113D02CBBC368D9
:1005900003EA0C03C360CB688C8844EA034300EB96
:1005A000CE0423640B4611E0416A41F4802141628C
:1005B0000120B0BDC3681343C3600B688C8844EA54
:1005C000034300EBCE04236401F10C038C681B8809
:1005D00043EA044300EBCE04636443688D6943EA55
:1005E0000204D1F810E0096A002D08BF03EA0C04E8
:1005F00044604369BEF1000F43EA020408BF03EA06
:100600000C040129446102D1C1691143C16101682F
:1006100021F0010101600020B0BD00007047000022
:10062000406A704790F82020013A012A84BF0020D8
:10063000704700681022002908BF0C22805800F083
:100640000300704710B590F82040013C012C7BD886
:10065000D0F800C0002900F08180DCF81040A40729
:1006600000F081800CEB011CDCF8B0410CF5D87E69
:1006700014F004049460DCF8B04119BFE40854603D
:10068000640D1460DEF800400CF5DA7E04F002041C
:10069000D460DCF8B44124075ABFDEF8004004F00F
:1006A0000F0408241461DEF800400029C4F3072475
:1006B0009461DEF800404FEA14445461DCF8B8213C
:1006C0001A70026802EB0112D2F8B8214FEA122226
:1006D0005A70026802EB0112D2F8B8214FEA1242B6
:1006E0009A70026802EB0112D2F8B8214FEA126246
:1006F000DA70026802EB0112D2F8BC211A710268AA
:1007000002EB0112D2F8BC214FEA12225A710268A0
:1007100002EB0112D2F8BC214FEA12429A71026830
:1007200002EB0112D2F8BC214FEA1262DA710068C2
:1007300014BF00F1100100F10C01002020220B6811
:100740001A430A6010BD00BF00F1240101204FF4DC
:1007500080220B681A430A6010BD00BFDCF80C4011
:10076000A4077FF47FAF00F1240101204FF40012B1
:100770000B681A430A6010BD90F820100139012956
:1007800084BF002070470068816882688068C1F378
:100790008061C2F3C0621144C0F300700844704726
:1007A0002DE9F04F81B0044600684669D0F8049006
:1007B0008768D0F80CB0D0F810A0D0F81880F107F6
:1007C00004D1002530071DD424E000BFF90710D064
:1007D0000121BA07816009D4780700F1AF8038079A
:1007E00000F1B680204600F055FA02E0204600F005
:1007F00053FA0025F80500F18780F80300F1B18075
:10080000300707D51BF0100004D0206845F40075B0
:100810001021C160700708D51BF0080005D02068C2
:100820000821C160204600F0A1F9B00706D5206874
:10083000C068800702D0204600F09AF9700607D5FC
:100840001AF0100004D0206845F480651021016181
:10085000B00608D51AF0080005D02068082101610B
:10086000204600F0E3F9F00606D52068006980070D
:1008700002D0204600F0DCF9B00308D519F01000D2
:1008800005D0206810214160204600F0D3F9F00324
:1008900008D519F0080005D02068082141602046DD
:1008A00000F004FA300440F19B805FEA497040F1A7
:1008B000948006F4807008EA102028435FEA88716B
:1008C000014648BF41F00201B20558BF01465FEA48
:1008D00048700D4648BF45F00405700558BF0D46E9
:1008E000300540F17A8018F0700000F07680103802
:1008F000000905286CD8DFE800F003595D616569DF
:1009000045F0080564E000BF20684FF48071BA0527
:1009100081600BD4780515D438051DD4204600F02D
:10092000BDF9F8037FF56CAF1BE000BF204600F077
:10093000B7F9F8037FF564AF13E000BF4FF400652B
:1009400058E700BF05F50055F8037FF559AF08E0FB
:100950004FF480554EE700BF05F58045F8037FF55D
:100960004FAF20684FF48031BA0381600AD4780316
:1009700010D4380314D4204600F094F930073FF522
:1009800041AF47E7204600F08FF930073FF53AAF17
:1009900040E700BF05F5004530073FF533AF39E7C5
:1009A00005F5803530073FF52DAF33E745F01005ED
:1009B0000EE000BF45F020050AE000BF45F040050D
:1009C00006E000BF45F0800502E000BF45F48075F9
:1009D0002068816921F070018161206804214160F3
:1009E00055B1606A40EA05012046616201B0BDE888
:1009F000F04FFFF713BE00BF01B0BDE8F08F00005D
:100A0000B0B5C8B1044690F8200010B9204600F0F7
:100A100071F82068016841F00101016000F01CFAE2
:100A2000054600BF20684168C90707D100F014FAE5
:100A3000401B0B28F6D312E00120B0BD016821F065
:100A40000201016000F008FA054600BF2068416815
:100A500089070DD500F000FA401B0B28F6D3606A19
:100A6000052140F400306062012084F82010B0BD00
:100A7000217E0268012922F0800208BF80320260D4
:100A8000617E0268012922F0400208BF4032026004
:100A9000A17E0268012922F0200208BF20320260F4
:100AA000E17E0268012922F0100218BF10320260B4
:100AB000217F0268012922F0080208BF0832026083
:100AC000617F0268012922F0040208BF043202603B
:100AD000D4E901C2D4E9033561691A432A431143B9
:100AE000ACF101021143C16100200121606284F870
:100AF0002010B0BD80B586B0016846F20040C4F257
:100B00000000814202D006B080BD00BF002143F644
:100B100030020191C4F20202136900F5D43043F0AF
:100B200000731361136903F000730193019B01913A
:100B3000136843F0080313601268022302F00802EE
:100B40000192019ACDE9023109210322059101A9FF
:100B50000192049200F0ACF814200021002200F071
:100B6000FFF9142000F0E8F906B080BD70470000DE
:100B70002DE9F04182B040F20C11C2F2000188422E
:100B800002D002B0BDE8F08140F20C10C2F20000C9
:100B90000021FFF747FD0028F3D040F2880640F21D
:100BA0000C1440F27C15C2F20006C2F20004C2F23C
:100BB0000005E84606F1300706E000BF20460021A8
:100BC000FFF730FD0028DCD0204600212A464346AE
:100BD000FFF738FD0028D4D1A8680028EED1E868D6
:100BE0000028EBD128690828E8D12868B0F5017FF2
:100BF000E4D13846414601F081F8384601F01EF94B
:100C0000384686ED020A01F01DF9384686ED030AE2
:100C100001F00CF9384686ED040A01F00BF986ED77
:100C2000050AB0690130B061C8E7000070470000F4
:100C30007047000070470000B0B5044690F82000EF
:100C400001281DD1022084F820002068016821F0CD
:100C50000101016000F000F9054600BF206840680E
:100C6000C00713D000F0F8F8401B0B28F6D3606AD9
:100C700040F400306062052084F820000120B0BDFF
:100C8000606A40F4002060620120B0BD0020606214
:100C9000B0BD0000704700007047000070470000C2
:100CA0007047000070470000704700007047000068
:100CB0002DE9F04F82B000F13E4241F6004502F1CD
:100CC000FF77C4F20205082243F6004E4FEAB7262A
:100CD000A84208BF0722C4F2010E072E38BF4FEA10
:100CE000B7220125002600274FF00008009208E0F7
:100CF00008F101080437B8F1100F06F1020600F000
:100D0000A7800C6805FA08F914EA090FF0D0D1F8A9
:100D100004B003220BF0030CACF10104B240012C2F
:100D20006FEA020A10D88268CC6802EA0A02B4406C
:100D3000224382604268CBF3001422EA090204FADB
:100D400008F42243426005E0BCF1030F02D14FF0EA
:100D5000030C20E0C2688C6802EA0A02B440224315
:100D6000BCF1020FC26016D16FF0030202EA580212
:100D70000244D2F820C007F01C050F230C69AB40D9
:100D80002CEA030304FA05F52B431362D1F804B0EF
:100D900001250BF0030C02680CFA06F302EA0A02C2
:100DA0001A431BF4403F0260A2D0002243F64403E2
:100DB0000192C4F202031A684FF6084C42F48042D2
:100DC0001A601A68CFF6FF7C02F480420192019A01
:100DD00028F00302724452F80C3007F00C050F247F
:100DE000AC40A343009C04FA05F52B4342F80C30B9
:100DF000DEF808204B6842EA090543F60C4CDC0299
:100E000058BF22EA0905CEF80850C4F2010CDCF8FC
:100E100000209C0242EA090558BF22EA0905CCF8E5
:100E20000050DEF804209C0342EA090558BF22EA7C
:100E30000905CEF80450DEF80020DB0342EA09057C
:100E400058BF22EA0905CEF80050012550E700BF3F
:100E500002B0BDE8F08F000040F29810C2F200002E
:100E60000068704740F2000040F29811C2F20000A2
:100E7000C2F2000100780A68104408607047000060
:100E800080B543F60040C4F20200016841F40071ED
:100E90000160016841F480610160016841F4807182
:100EA0000160032000F088F80F2000F005F800F042
:100EB00027F8002080BD000070B540F20006C2F2A5
:100EC000000640F208013278C2F200014FF47A7352
:100ED0000968B3FBF2F20446B1FBF2F1084600F0F8
:100EE0001BFB0F2C4FF0010508D838B94FF0FF302D
:100EF00021460022002500F033F87460284670BDBA
:100F000082B0002043F640010190C4F202014A6819
:100F100042F480424A604A6802F480420192019A97
:100F20000090086840F080500860086800F0805029
:100F30000090009802B07047002848BF7047C1B2C7
:100F400000F01F00012202FA00F04EF20012CEF271
:100F5000000242EAD10121F003010860704700005D
:100F600010B54EF60C5CCEF2000CDCF80030C3F38A
:100F7000022E8EF00704042C28BF0424BEF10303C4
:100F80004FF0FF3E0EFA04F438BF0023A14399400E
:100F90000EFA03F39A43114300F00F0200F160438D
:100FA0000901043A03F564436244002848BF02F192
:100FB0000C03197010BD00004EF60C51CEF200016A
:100FC0000A684FF6FF031A4060F30A2242F080607D
:100FD00040F0FD70086070472DE9F041002800F0F6
:100FE0008B8043F60808C4F202080446D8F8F803D8
:100FF0000D4600F00700884207D288F8F853D8F869
:10100000F80300F00700A84276D12068810717D5C1
:10101000410705D5D8F8001041F4E051C8F8001098
:10102000010705D5D8F8001041F46041C8F8001058
:10103000D8F80010A26821F0F0011143C8F80010A0
:10104000C0073FD1D8F8F80300F00700A84207D93D
:1010500088F8F853D8F8F80300F00700A8424BD1FD
:101060002068410707D5D8F80010E26821F4E05164
:101070001143C8F80010000708D5D8F8000021690E
:1010800020F4604040EAC100C8F8000000F054F8C5
:10109000D8F8001041F6F462C1F30311C0F6000263
:1010A000515C40F2080220FA01F140F20400C2F261
:1010B00000000068C2F200021160FFF7FDFE002090
:1010C000BDE8F0816068811E022907D258F8081C2B
:1010D00089015CBF0120BDE8F08111E0012807D142
:1010E00058F8081C89035CBF0120BDE8F08107E0C7
:1010F00058F8081C890703D40120BDE8F08100BF1F
:10110000D8F8001021F003010843C8F80000FFF7E9
:10111000A3FE064641F28837D8F80000616800F067
:101120000C00B0EB810F8DD0FFF796FE801BB8420C
:10113000F2D90320BDE8F08110B543F60404C4F2EF
:101140000204606800F00C0008280BD0042819BFC6
:1011500042F20040C0F2F40041F60030C0F2B700A5
:1011600010BD00BF206821682368490241F60031A4
:10117000C0F2B70100F03F02C3F388105CBF42F237
:101180000041C0F2F401A1FB00010023FFF76EF85B
:1011900021680222C1F3014102EB4101B0FBF1F0F1
:1011A00010BD00002DE9F04182B0002868D004464F
:1011B000007843F60006C007C4F202060BD0B06800
:1011C00000F00C00042840F09F803068800302D5B6
:1011D0006068002854D0207880071AD5B06810F0D5
:1011E0000C0F09D0B06800F00C00082840F0A68071
:1011F0007068400200F1A2803068800702D5E06884
:1012000001283DD13068216920F0F80040EAC10092
:1012100030602078000737D4207840074CD4A56987
:1012200055B3B06800F00C00082840F0BB80012DD9
:1012300026D07068E16900F480028A4220D1216AD8
:1012400000F03F028A421BD147F6C071626A01403A
:10125000B1EB821F14D1A16A4FF6FF73C903994302
:1012600000F44032A1F580318A4209D1E16A00F0F0
:101270007060B0EB016F03D1002002B0BDE8F081D7
:10128000012002B0BDE8F0816069002840F2000052
:10129000C4F2472076D00121C0F8801EFFF7DCFDA4
:1012A000054600BF706F8007B6D4FFF7D5FD401B21
:1012B0000228F7D9DDE000BF306C10F080580AD169
:1012C00000200190306C40F080503064306C00F0B1
:1012D00080500190019847F20007C4F20007386877
:1012E000C00541D4386840F480703860FFF7B4FD21
:1012F000054600BF3868C00536D4FFF7ADFD401B7A
:101300000228F7D9B5E000BFB06800F00C0008284B
:1013100003D1706840023FF558AF6068B0F5803F78
:1013200007D0B0F5A02F40F08D80306840F48020C9
:101330003060306840F4803030608DE0E068002834
:1013400052D00020C4F2472001210160FFF784FD44
:10135000054600BF306880073FF554AFFFF77CFDBE
:10136000401B0228F6D984E0A068012805D0052892
:101370004ED1306F40F004003067306F40F0010014
:1013800030674FE00021C0F8801EFFF765FD05467D
:10139000706F80077FF540AFFFF75EFD401B0228AE
:1013A000F6D966E00027C4F2472700203866FFF729
:1013B00053FD022D05460BD1306880015ED5FFF745
:1013C0004BFD401B02284FF00300F5D955E700BF45
:1013D000306880017FF550AFFFF73EFD401B0228CB
:1013E0004FF00300F4D948E70020C4F24720002161
:1013F0000160FFF731FD0546306880077FF509AFD2
:10140000FFF72AFD401B02284FF00300F4D934E710
:10141000316F002821F001013167316F21F00401A3
:1014200031674DD0FFF718FD054641F2883700BF00
:10143000306F800756D4FFF70FFD401BB842F7D935
:1014400017E000BF3168002821F480313160316835
:1014500021F4802131604FD0FFF7FEFC054600BF2C
:10146000306880033FF5B7AEFFF7F6FC401B6428F9
:10147000F6D9032002B0BDE8F08100BF04F11C05DD
:101480002FCD084340EA8210D9034FF6FF729143F3
:10149000A1F5803140EA056008437060012038669C
:1014A000FFF7DAFC044600BF306880013FF5E4AE88
:1014B000FFF7D2FC001B02284FF00300F4D9DCE652
:1014C000FFF7CAFC054641F2883700BF306F80073E
:1014D00008D5FFF7C1FC401BB8424FF00300F5D917
:1014E000CBE600BFB8F1000F7FF499AE306C20F06E
:1014F0008050306493E600BFFFF7AEFC054600BFA6
:10150000306880037FF567AEFFF7A6FC401B6428B8
:101510004FF00300F4D9B0E6411E0020B0EB116F8C
:101520001CBF012070474EF21002CEF20002516043
:101530004EF62351CEF20001F0230B70072190608C
:1015400011607047704700007047000010B590F8B8
:101550003C20012A4FF0020251D080F83D20026861
:10156000D2F804E0D2F808C00C682EF070032343D0
:1015700041F2FF74C4F20004A24253600EDC40F258
:10158000FF73C4F200039A4216DCB2F1804F2BD0F5
:1015900040F20043C4F2000324E000BF40F2FF33F6
:1015A000C4F201039A4213DC41F60003C4F20003C3
:1015B0009A4219D0002313E040F60003C4F200035E
:1015C0009A4211D040F60043C4F200030AE000BF83
:1015D00044F20003C4F201039A4205D040F20043F2
:1015E000C4F201039A4204D149682CF080031943E4
:1015F00091600121002280F83D1080F83C201046C7
:1016000010BD0000002804BF0120704710B504463B
:1016100090F83D0028B9002084F83C00204600F0F6
:101620001FF8022084F83D002068211D00F082FA96
:10163000012084F8460084F83E0084F83F0084F8D6
:10164000400084F8410084F8420084F8430084F8A4
:10165000440084F8450084F83D00002010BD0000DF
:1016600080B582B0006841F20001C4F200018842F6
:101670001CBF02B080BD0020019043F64000C4F2C0
:1016800002000168002241F010010160006806219B
:1016900000F01000019001983620FFF761FC362021
:1016A00002B0BDE88040FFF747BC000090F83D1055
:1016B00001291CBF01207047022180F83D100068FD
:1016C00041F2FF72C168C4F20002904241F0010190
:1016D000C1600DDC40F2FF71C4F20001884215DCEC
:1016E000B0F1804F2AD040F20041C4F2000123E063
:1016F00040F2FF31C4F20101884213DC41F60001DF
:10170000C4F20001884219D0002113E040F6000124
:10171000C4F20001884211D040F60041C4F2000139
:101720000AE000BF44F20001C4F20101884205D082
:1017300040F20041C4F20101884206D1816801F003
:101740000701062904BF00207047016841F001012C
:1017500001600020704700007047000070B504462B
:101760000068C5680669B10716D515F0020113D0E7
:101770006FF002010161012121778069800703D0A8
:101780002046FFF7E9FF05E0204600F08FF82046ED
:1017900000F08EF800202077700719D515F00400AE
:1017A00016D020686FF00401016102212177806961
:1017B00010F4407F04D02046FFF7CEFF06E000BFC4
:1017C000204600F073F8204600F072F800202077E1
:1017D000300717D515F0080014D020686FF0080105
:1017E000016104212177C069800703D02046FFF7FB
:1017F000B3FF05E0204600F059F8204600F058F805
:1018000000202077F00619D515F0100016D02068BA
:101810006FF01001016108212177C06910F4407F49
:1018200004D02046FFF798FF06E000BF204600F0F6
:101830003DF8204600F03CF800202077F00718BF64
:1018400015F0010002D1300609D412E020686FF0D3
:1018500001010161204600F02DF8300609D515F090
:10186000800006D020686FF0800101612046FFF7FC
:1018700069FE700609D515F0400006D020686FF0AB
:1018800040010161204600F071F8B00658BF70BDFC
:1018900015F0200008D021686FF0200220460A6170
:1018A000BDE87040FFF750BE70BD000070470000FB
:1018B0007047000040F23411C2F20001884218BFA4
:1018C000704770B540F28806C2F20006B06AB7EE03
:1018D000001A0130B06296ED000A06F13005B4EE50
:1018E000410AF1EE10FAC8BFB0EE410ABFEE001A8D
:1018F000B4EE410A28460421F1EE10FAB8BFB0EE6A
:10190000410A86ED010A00F0C5F940F20C14C2F25A
:1019100000042046FEF730FF40F20C01C2F2000145
:1019200008600868C0B1284600F06CFA024640F230
:101930000C1040F2100140F20813C2F20000C2F293
:101940000001C2F20003FEF7A5FD2021002808BF18
:101950001C217058013070502046FEF761FE706205
:1019600020688069F062BDE87040704770470000F1
:10197000FEE7000010B540F20C1046F20041C2F242
:101980000000C4F20001032200234FF0012480E88C
:101990000E0000F10C014FF4002C4FF4401E81E8C2
:1019A000085084618383FFF72BF8002808BF10BD1F
:1019B000BDE81040FEF752BD83B0002043F6300171
:1019C0000290C4F202010A6842F001020A600A6849
:1019D00002F001020292029A01900A6842F00802A3
:1019E0000A600A6802F008020192019A00900868F1
:1019F00040F080000860086800F0800000900098C7
:101A000003B0704780B582B040F234100021C2F2BA
:101A1000000041F2000240F2E73CCDE90011C4F2BF
:101A200000025323C0E9021C8021C0E90023816128
:101A3000FFF7E8FD002818BFFEF710FD40F2341054
:101A4000C2F200006946FFF781FD002818BFFEF7CB
:101A500005FD02B080BD0000FEE70000FEE70000CB
:101A60007047000070470000FFF7FCB9B0B592B0B6
:101A7000002443F64000CDE90A44CDE9084405942A
:101A8000CDE90344CDE901440094C4F202000168A9
:101A9000022541F080510160006800F08050009004
:101AA000009847F200000094C4F20000016841F47D
:101AB00080410160006800F480400090009801209F
:101AC00006904FF4803007904FF480000D90062070
:101AD0000E90A820CDE90F050720119006A80C95BF
:101AE000FFF760FB10B172B6FEE700BF0F20CDE933
:101AF00001054FF4A05004904FF48050059001A8C8
:101B000005210394FFF768FA10B172B6FEE700BF33
:101B100012B0B0BD4EF68850CEF20000016841F41C
:101B2000700101607047000040F23410C2F2000002
:101B3000FFF714BEB0B540F6FF3E0568C4F2000ED4
:101B400040F2004C7045C4F2010C27DCB0F1804F2C
:101B500031D040F20043C4F2000398422BD040F64B
:101B60000003C4F20003984225D041F6FF73C4F28B
:101B7000000398422ADC70453CDCB0F1804F5FD016
:101B800040F20043C4F20003984259D040F60003EB
:101B9000C4F20003984253D057E000BF40F6004320
:101BA000C4F20003984206D0604504D00023C4F27A
:101BB00001039842D9D14B6825F0700243EA02052F
:101BC00041F6FF73C4F200039842D4DD43F6FF737D
:101BD000C4F20103984221DC42F20003C4F2000384
:101BE00098422DD00023C4F20103984228D06045CA
:101BF00026D02AE040F60043C4F2000398421FD0EA
:101C000041F60003C4F20003984219D041F60043A4
:101C1000C4F20003984213D017E000BF44F200035F
:101C2000C4F2010398420BD044F60003C4F201034E
:101C3000984205D044F20043C4F20103984204D113
:101C4000CB6825F4407243EA02050A688C684B6948
:101C5000C46240F480648262644504BF0969016320
:101C6000026825F0800142F004021943026001225B
:101C700042610160B0BD0000FEE7000040F2880054
:101C8000C2F200009FED020A303000F0BDB800BF84
:101C90009A9999414A1FD2B2FC2A38BF7047B3EED5
:101CA000041AB4EE410AF1EE10FAB0EE412A0ADC51
:101CB000BBEE043AB4EE430AB0EE402AF1EE10FA5D
:101CC000B8BFB0EE432A9FED0C0A6FF0010322EE7D
:101CD000000A80EE010A03EB410150FA81F0EFF3B4
:101CE000108C72B6BDEEC00A10EE102A130A4377AC
:101CF00082778CF31088704700008046F0B50A8820
:101D000091F9027012BA4FEA124CCA785FFA87FE54
:101D100091F904504E7942EA0E23ECB21A4646EA93
:101D20000426CFF6FF72002F58BF1A46334601EE45
:101D3000102ACFF6FF73B8EEC11A002D58BF3346F4
:101D400080ED021A01EE103AB8EEC11AB3EE042A81
:101D500021EE021A9FED242A00EE10CAB8EE400AC6
:101D600021EE021A80ED010A80ED031A897901EE55
:101D7000101A017FB8EE411A80ED041A71B190ED8E
:101D8000061A9FED1A2A30EE411AB4EE421AF1EE0D
:101D900010FA09DD9FED182A0FE000BF012180ED48
:101DA000060A0177F0BD00BF9FED112AB4EE421A7A
:101DB000F1EE10FA03DA9FED0F2A31EE021A9FEDD1
:101DC0000F2A90ED003A21EE021A9FED0D2A80EDC8
:101DD000060A21EE021A81EE031A90ED052A32EE70
:101DE000011A80ED051AF0BD000080380000804522
:101DF000000080C500000046000000C60000B4439B
:101E0000000000391D30704710B5B7EE001AB5EE6E
:101E1000400A0446F1EE10FAC8BFB0EE401AA0EC3A
:101E2000011A2121FEF79AFA204610BD90ED030A0F
:101E30007047000090ED040A7047000090ED050A1D
:101E40007047000090ED020A70470000FFF718F895
:101E5000FFF70CFEFFF7B0FDFFF78CFDFFF7D2FD9B
:101E600040F2E001C2F2000100200122C1E90000BD
:101E7000C1E90200C1E90400C1E906020E20C1E97E
:101E8000082040F20C10C2F20000FEF757FB18B118
:101E900072B600BFFEE700BF40F20C10C2F20000B5
:101EA000FEF7CAFE10B172B6FEE700BF40F20C109A
:101EB000C2F200000221FEF7D5FA18B172B600BFD7
:101EC000FEE700BF40F23410C2F20000FFF7EEFB65
:101ED00010B172B6FEE700BFFEE7F1EE100A4FF652
:101EE000FF71C0F2C03120EA010040F04070E1EE25
:101EF000100A704700000000000000000102030407
:101F000006070809281F000800000020280000001C
:101F1000C4010008501F00082800002078070000B6
:101F2000E001000859FDFFFF010000001000000063
:101F30000024F40003000000000200000000000084
:101F40000000000000000000080000000000000089
:040000050800018965
:00000001FF
